:1004210050617373776F72643A005F5F5F5F5F5F04
:100431005F5F5F5F5F5F5F5F5F5F004572722100BB
:0704410054727565005F00B5
:1001BE001204D17BFF7A0479217D017F011204485C
:1001CE007BFF7A04792B7D017F02120448751D0096
:1001DE00751E01751F0075200175210075220275AF
:1001EE002300752407750804E4F5321200038F31DD
:1001FE00E532FB7A007538017D107F01120489E526
:10020E003160E8D3940A5029AF31E53225E0240954
:10021E00F8760008A607AF320532EF25E02409F87C
:10022E00E6FA08E6FB753801AD327F0212048980CA
:10023E00BAE531640B704FF533AF330533EFC39529
:10024E0032501EE53325E0241DF8E6FE08E6FFE5F4
:10025E003325E02409F8E6FC08E66F7002EC6E60C8
:10026E00D8E532C395084006E533953250087BFF3A
:10027E007A04793C80067BFF7A0479417D0A7F01FE
:10028E001204480201F9E531640C60030201F9AD74
:10029E003215327BFF7A0479467F0212044802013E
:0102AE00F956
:1004BC00EF1FAC0670011E4C600A7D027CEFDCFE67
:0404CC00DDFC80ECE7
:0104D0002209
:0604E500C2A58F80D2A722
:0804EB007F027EEFDEFEDFFC64
:0104F30022E6
:0A050000C2A61204E5C2A70204EB34
:10046B00CFCDCFCECCCE1202EE7C007D0A1202EEA7
:04047B00ED2430FF3D
:0A047F00D2A61204E5C2A70204EBA6
:1004A600AE07BE0104ED148006BE0209ED243F44EA
:0604B60080FF1205002288
:1004D1007F381205007F0C1205007F061205007F90
:0404E100010205000F
:0A050A00AC031204A6AF0402047F44
:060448008B348A35893671
:10044E001204A6E4FDAB34AA35A9368D827583005D
:0C045E001202AFFF600612047F0D80E95F
:01046A00226F
:0C03EE007F0AEA24FFFDE434FFFC7E00DF
:0803FA008E398F3A8C3B8D3CDB
:100402007F017E00E4FBEBC3953CE53B6480F8741E
:0E0412008098500AAC39AD3A1202DC0B80E83B
:0104200022B9
:040489008A368B37ED
:10048D001204A6AA38EAD39400400D1203EEAC363E
:08049D00AD3712046B1A80ED6B
:0104A5002234
:100343001204A6C3EA64809480400B7F2B12047FBF
:100353008A428B43800E7F2D12047FC3E49BF543B7
:10036300E49AF542AA41EAD39400400D1203EEAC9D
:0903730042AD4312046B1A80ED47
:01037C00225E
:04037D008A468B47DA
:100381001204A6AA48EAD3940040297F101203F070
:10039100AC46AD47CFCDCFCECCCE1202EEEF540F4F
:1003A100FEC3940AEE5004243080022437FF120465
:0403B1007F1A80D15E
:0103B5002225
:0403B6008A4B8B4C97
:1003BA001204A6AA4DEAD394004028EA24FFFDE4D9
:1003CA0034FFFC7F027E001203FAAC4BAD4CCFCD5A
:1003DA00CFCECCCE1202EEEF54012430FF12047FAE
:0303EA001A80D2A4
:0103ED0022ED
:10000300E4F534F5357590FFC2932097167F14FEFF
:100013001204BC3097FD7F147E001204BC753400BB
:100023007535012096177F147E001204BC3096FDAF
:100033007F147E001204BC753400753505209517B6
:100043007F147E001204BC3095FD7F147E001204E1
:10005300BC7534007535092094177F147E00120493
:10006300BC3094FD7F147E001204BC7534007535DA
:100073000D7590FFC2922097177F147E001204BC67
:100083003097FD7F147E001204BC75340075350271
:100093002096177F147E001204BC3096FD7F147ED9
:1000A300001204BC7534007535062095177F147E45
:1000B300001204BC3095FD7F147E001204BC75341D
:1000C3000075350A2094177F147E001204BC309407
:1000D300FD7F147E001204BC75340075350E7590D7
:1000E300FFC2912097177F147E001204BC3097FD46
:1000F3007F147E001204BC753400753503209617F7
:100103007F147E001204BC3096FD7F147E0012041F
:10011300BC7534007535072095177F147E001204D3
:10012300BC3095FD7F147E001204BC753400753518
:100133000B2094177F147E001204BC3094FD7F14AF
:100143007E001204BC75340075350F7590FFC290A4
:100153002097177F147E001204BC3097FD7F147E16
:10016300001204BC7534007535042096177F147E85
:10017300001204BC3096FD7F147E001204BC75345B
:10018300007535082095177F147E001204BC309546
:10019300FD7F147E001204BC75340075350C209469
:1001A300177F147E001204BC3094FD7F147E00126E
:0A01B30004BC753400753510AF353B
:0101BD00221F
:030000000204F403
:0C04F400787FE4F6D8FD75814D0201BE52
:1002AF00BB010CE58229F582E5833AF583E0225004
:1002BF0006E92582F8E622BBFE06E92582F8E2224E
:0D02CF00E58229F582E5833AF583E4932268
:1002DC00EF8DF0A4A8F0CF8CF0A428CE8DF0A42E36
:0202EC00FE22F0
:1002EE00BC000BBE0029EF8DF084FFADF022E4CCF4
:1002FE00F875F008EF2FFFEE33FEEC33FCEE9DECBD
:10030E00984005FCEE9DFE0FD5F0E9E4CEFD22ED02
:10031E00F8F5F0EE8420D21CFEADF075F008EF2F4C
:10032E00FFED33FD4007985006D5F0F222C398FD3D
:05033E000FD5F0EA22DA
:00000001FF
