:1000410000000000000000000000FF101010FF0081
:1000510000FF919191910000FF010101010000FF5A
:10006100010101010000FF818181FF00000000000A
:0500710000000000008A
:10000300E4F509F50A1200E6E4F508E50825099088
:10001300004193FD7C00AF081200A30508E508C367
:10002300940840E7050AE50AD3940A40050509E464
:0E003300F50AE509D3942D40CFE4F50980CA03
:1000C500EF1FAC0670011E4C600A7D027CEFDCFE62
:0400D500DDFC80ECE2
:0100D9002204
:02007600AD07D4
:10007800E4FB74807E00A803088006CEA2E713CEB6
:1000880013D8F8FFEDF582EF558224FF92B4D2B66B
:0A009800C2B60BBB08DCD2B5C2B53E
:0100A200223B
:1000A300AA07AF05120076AF027480A80708800282
:1000B300C313D8FCF4F5807F017E001200C5758060
:0200C300FF221A
:0500E600C2B6C2B52204
:030000000200DA21
:0C00DA00787FE4F6D8FD75810A0200036F
:00000001FF
