:070003002020002D003A004F
:10093800180E001F001D001F001E001F001E001FB4
:0A094800001F001E001F001E001F0C
:1006AD0012043DE536FB3395E0FA752A027D017F94
:1006BD000112099DE537FB3395E0FA752A027D0499
:1006CD007F0112099DE538FB3395E0FA752A027D0D
:1006DD00077F0112099DE539FB3395E0FA752A0272
:1006ED007D017F0212099DE53AFB3395E0FA752AEB
:1006FD00027D047F0212099DE53BFB3395E0FA75FF
:09070D002A027D077F0202099D0A
:10000E00E50B7014E50DB4010F7BFF7A0079037DCB
:10001E00017F0112095C8011E536FB3395E0FA751C
:10002E002A027D017F0112099DE50BB40114E50D35
:10003E00B4010F7BFF7A0079037D047F0112095C06
:10004E008011E537FB3395E0FA752A027D047F01B6
:10005E0012099DE50BB40214E50DB4010F7BFF7A76
:10006E000079037D077F0112095C8011E538FB33AF
:10007E0095E0FA752A027D077F0112099DE50BB402
:10008E000314E50DB4010F7BFF7A0079037D017F28
:10009E000212095C8011E539FB3395E0FA752A02EC
:1000AE007D017F0212099DE50BB40414E50DB40128
:1000BE000F7BFF7A0079037D047F0212095C8011A9
:1000CE00E53AFB3395E0FA752A027D047F021209A8
:1000DE009DE50BB40514E50DB4010F7BFF7A007995
:1000EE00037D077F0212095C8011E53BFB3395E02F
:1000FE00FA752A027D077F0212099DE50AB4020DE8
:10010E00050BE50B75F0061204F885F00BE50A6495
:10011E000360030201D97436250BF806D3E5366465
:10012E008094E34003E4F536D3E5376480948C4045
:10013E0003753701E53675F0641204F8AFF0EF6021
:10014E000DE53675F0041204F8AFF0EF702CE537BC
:10015E00B4020BD3E5386480949D404B8046E5375E
:10016E0025E0240CF8E6FE08E6FFAD38ED3395E009
:10017E00FCD3ED9FEC9E402F802AE537B4020BD3C3
:10018E00E5386480949C401F801AE53725E0240CE6
:10019E00F8E6FE08E6FFAD38ED3395E0FCD3ED9FB3
:1001AE00EC9E4003753801D3E53964809497400383
:1001BE00E4F539D3E53A648094BB4003E4F53AD3D1
:1001CE00E53B648094BB4003E4F53BE50A640460C0
:1001DE00030202E27436250BF816C3E536648094EA
:1001EE00805003753663C3E5376480948150037580
:1001FE00370CE53675F0641204F8AFF0EF600DE5DC
:10020E003675F0041204F8AFF0EF7055E537B4020E
:10021E001EC3E53864809481500375381DD3E538CC
:10022E006480949D50030202BE75381D0202BEC347
:10023E00E53864809481500BE53725E0240CF808EE
:10024E00E6F538E53725E0240CF8E6FE08E6FFADC6
:10025E0038ED3395E0FCD3ED9FEC9E40538F388004
:10026E004FE537B4021AC3E53864809481500375A4
:10027E00381CD3E5386480949C403575381C80302A
:10028E00C3E53864809481500BE53725E0240CF8E3
:10029E0008E6F538E53725E0240CF8E6FE08E6FF1B
:1002AE00AD38ED3395E0FCD3ED9FEC9E40028F38D8
:1002BE00C3E539648094805003753917C3E53A64F9
:1002CE008094805003753A3BC3E53B648094805024
:0502DE0003753B3B220B
:10063A001209FC120A331202E37BFF7A0079067D63
:10064A00037F0112095C7BFF7A0079067D067F0130
:10065A0012095C7BFF7A0079087D037F0212095C2C
:10066A007BFF7A0079087D067F0212095C1209BABB
:10067A001207168F0AE50AB40117E50C7005750C06
:10068A0001800EE50CB40109E4F50C1202E3E4F56D
:10069A000BE50C1460080470D71206AD80D2120064
:0306AA000E80CDF2
:03000B0002085B8D
:09085B00C0E0C0D075D000C00758
:10086400758A18758CFC0509E50970020508C3949E
:10087400F4E50894014012750800750900E50D704F
:09088400047F0180027F008F0D4A
:07088D00D007D0D0D0E0320B
:1009E700EF1FAC0670011E4C600A7D027CEFDCFE37
:0409F700DDFC80ECB7
:0109FB0022D9
:060A1000C2A58F80D2A7F1
:080A16007F027EEFDEFEDFFC33
:010A1E0022B5
:0A0A1F00C2A6120A10C2A7020A16AE
:10097F00CFCDCFCECCCE1205597C007D0A120559B2
:04098F00ED2430FF24
:0A099300D2A6120A10C2A7020A162B
:1009D100AE07BE0104ED148006BE0209ED243F44BA
:0609E10080FF120A1F2234
:1009FC007F38120A1F7F0C120A1F7F06120A1F7FF4
:040A0C0001020A1FBA
:0A0A2900AC031209D1AF04020993D7
:06095C008B268A27892882
:100962001209D1E4FDAB26AA27A9288D827583003E
:0C09720012051AFF60061209930D80E9BF
:01097E002256
:0C0905007F0AEA24FFFDE434FFFC7E00C2
:080911008E2B8F2C8C2D8D2EF6
:100919007F017E00E4FBEBC3952EE52D6480F8741E
:0E0929008098500AAC2BAD2C1205470B80E8CD
:01093700229D
:04099D008A288B29F0
:1009A1001209D1AA2AEAD39400400D120905AC28F4
:0809B100AD2912097F1A80ED47
:0109B900221B
:100821001209D1C3EA64809480400B7F2B12099393
:100831008A348B35800E7F2D120993C3E49BF535E5
:10084100E49AF534AA33EAD39400400D120905ACB9
:0908510034AD3512097F1A80ED67
:01085A00227B
:040894008A3F8B40CC
:100898001209D1AA41EAD3940040297F101209070E
:1008A800AC3FAD40CFCDCFCECCCE120559EF540FD3
:1008B800FEC3940AEE5004243080022437FF120944
:0408C800931A80D12E
:0108CC002209
:0408CD008A448B4589
:1008D1001209D1AA46EAD394004028EA24FFFDE494
:1008E10034FFFC7F027E00120911AC44AD45CFCD2F
:1008F100CFCECCCE120559EF54012430FF1209930B
:030901001A80D287
:0109040022D0
:090952000736170C1F173B37058F
:050A3300C2B5C2B622AD
:050777002DFDEE3CFC2D
:06077C008C268D27AB075F
:10078200D2B5E4FD74017E00A805088005C333CE0E
:1007920033CED8F9FFEBF582EF558224FF92B4D223
:1007A200B6C2B60DBD08DDE4FD74017E00A80508E1
:1007B2008005C333CE33CED8F9FFE5265EFEE527AA
:1007C2005F4E24FF92B4D2B6C2B60DBD08DBC2B5ED
:0107D2002204
:0207D300AD0770
:1007D500E4F9430501D2B5FB74017E00A803088046
:1007E50005C333CE33CED8F9FFEDF582EF5582241C
:1007F500FF92B4C2B6D2B60BBB08DDE4FBD2B6C2DB
:10080500B630B40D7401A803088002C333D8FC4286
:0B081500010BBB08E8C2B5C2B4AF0184
:0108200022B5
:1002E300E4FDFC7F8E12077CE53675F00A1204F8F4
:1002F300FF3395E0FEEFC4F8540FC868FFEEC45413
:10030300F048FEE53675F00A1204F8ADF0ED3395CA
:10031300E0FCEF7F8C120777E53775F00A1204F8DB
:10032300FF3395E0FEEFC4F8540FC868FFEEC454E2
:10033300F048FEE53775F00A1204F8ADF0ED339599
:10034300E0FCEF7F88120777E53875F00A1204F8AE
:10035300FF3395E0FEEFC4F8540FC868FFEEC454B2
:10036300F048FEE53875F00A1204F8ADF0ED339568
:10037300E0FCEF2DFDEE3CFC7F8612077CE5397532
:10038300F00A1204F8FF3395E0FEEFC4F8540FC8E7
:1003930068FFEEC454F048FEE53975F00A1204F81C
:1003A300ADF0ED3395E0FCEF2DFDEE3CFC7F8412C8
:1003B300077CE53A75F00A1204F8FF3395E0FEEF87
:1003C300C4F8540FC868FFEEC454F048FEE53A750C
:1003D300F00A1204F8ADF0ED3395E0FCEF2DFDEEDD
:1003E3003CFC7F8212077CE53B75F00A1204F8FFA0
:1003F3003395E0FEEFC4F8540FC868FFEEC454F021
:1004030048FEE53B75F00A1204F8ADF0ED3395E0D4
:10041300FCEF2DFDEE3CFC7F8012077CE53C75F084
:100423000A1204F8AFF0EFFD3395E0FC7F8A120760
:0A0433007C7D807C007F8E02077C38
:10043D007F8C1207D3AD077C00ECC4F854F0C8EDE7
:10044D00C4540F4875F00AA4FFED540F2FF5367FF5
:10045D00881207D3AD07ECC4F854F0C8EDC4540F9F
:10046D004875F00AA4FFED540F2FF5377F8612075C
:10047D00D3AD07ECC4F854F0C8EDC4540F4875F073
:10048D000AA4FFED540F2FF5387F841207D3AD0763
:10049D00ECC4F854F0C8EDC4540F4875F00AA4FF2D
:1004AD00ED540F2FF5397F821207D3AD07ECC4F849
:1004BD0054F0C8EDC4540F4875F00AA4FFED540F65
:1004CD002FF53A7F801207D3AD07ECC4F854F0C86E
:1004DD00EDC4540F4875F00AA4FFED540F2FF53BF2
:0A04ED007F8A1207D3EF540FF53C8D
:0104F70022E2
:10071600E4F52620B1137F14FE1209E730B1FD7F00
:10072600147E001209E775260120B0147F147E009E
:100736001209E730B0FD7F147E001209E775260224
:1007460020B2147F147E001209E730B2FD7F147EBA
:10075600001209E775260320B3147F147E001209E0
:10076600E730B3FD7F147E001209E7752604AF2635
:010776002260
:1009BA005389F0438901758A18758CFCC28DD28CD3
:0709CA00D2A9D2AFC2B9228D
:030000000205AE48
:0C05AE00787FE4F6D8FD7581460205F563
:1004F800C2D530F707B2D563F0FF05F030E70CB28C
:10050800D5F4048463F0FF05F080018430D502F44B
:020518000422BB
:10051A00BB010CE58229F582E5833AF583E0225096
:10052A0006E92582F8E622BBFE06E92582F8E222E0
:0D053A00E58229F582E5833AF583E49322FA
:10054700EF8DF0A4A8F0CF8CF0A428CE8DF0A42EC8
:02055700FE2282
:10055900BC000BBE0029EF8DF084FFADF022E4CC86
:10056900F875F008EF2FFFEE33FEEC33FCEE9DEC4F
:10057900984005FCEE9DFE0FD5F0E9E4CEFD22ED95
:10058900F8F5F0EE8420D21CFEADF075F008EF2FDF
:10059900FFED33FD4007985006D5F0F222C398FDD0
:0505A9000FD5F0EA226D
:1005BA0002063AE493A3F8E493A34003F68001F217
:1005CA0008DFF48029E493A3F85407240CC8C33342
:1005DA00C4540F4420C8834004F456800146F6DF11
:1005EA00E4800B0102040810204080900938E47E60
:1005FA00019360BCA3FF543F30E509541FFEE49306
:10060A00A360010ECF54C025E060A840B8E493A3CC
:10061A00FAE493A3F8E493A3C8C582C8CAC583CAF7
:10062A00F0A3C8C582C8CAC583CADFE9DEE780BEAF
:01095B00009B
:00000001FF
