:09039200436C6F636B3A003A0002
:09037400011A37011C3B011B17A3
:10012E0012035112030F7BFF7A0379927D017F0137
:10013E001202B17BFF7A0379997D037F021202B11D
:10014E007BFF7A0379997D067F021202B1E51BFBD4
:10015E007A00750C027D017F021202F2E51CFB7A19
:10016E0000750C027D047F021202F2E51AFB7A0082
:0C017E00750C027D077F021202F280D196
:03000B0002018A65
:04018A00C0E0C0D041
:10018E00758A18758CFC0519E51970020518C3944B
:10019E00E8E51894034029751800751900051AE54D
:1001AE001A943C4005051C751A00E51CC3943C408E
:1001BE0005051B751C00E51BC394184003751B0039
:0501CE00D0D0D0E032AA
:10030F005389F0438901758A18758CFCC28DD28C84
:07031F00D2A9D2AFC2B9223E
:10033C00EF1FAC0670011E4C600A7D027CEFDCFEE8
:04034C00DDFC80EC68
:01035000228A
:06036500C2A58F80D2A7A3
:08036B007F027EEFDEFEDFFCE5
:010373002267
:0A037E00C2A6120365C2A702036BBA
:1002D400CFCDCFCECCCE12004D7C007D0A12004D86
:0402E400ED2430FFD6
:0A02E800D2A6120365C2A702036B41
:10032600AE07BE0104ED148006BE0209ED243F446B
:0603360080FF12037E228D
:100351007F3812037E7F0C12037E7F0612037E7F9D
:040361000102037E14
:0A038800AC03120326AF040202E8E2
:0602B1008B088A09890A8E
:1002B700120326E4FDAB08AA09A90A8D82758300FB
:0C02C70012000EFF60061202E80D80E934
:0102D3002208
:0C027E007F0AEA24FFFDE434FFFC7E0050
:08028A008E0D8F0E8C0F8D10FC
:100292007F017E00E4FBEBC39510E50F6480F874E8
:0E02A2008098500AAC0DAD0E12003B0B80E8A8
:0102B000222B
:0402F2008A0A8B0BDE
:1002F600120326AA0CEAD39400400D12027EAC0A21
:08030600AD0B1202D41A80EDC8
:01030E0022CC
:1001D300120326C3EA64809480400B7F2B1202E84B
:1001E3008A168B17800E7F2D1202E8C3E49BF51746
:1001F300E49AF516AA15EAD39400400D12027EACD8
:0902030016AD171202D41A80EDA9
:01020C0022CF
:04020D008A1F8B2099
:10021100120326AA21EAD3940040297F10120280FA
:10022100AC1FAD20CFCDCFCECCCE12004DEF540FB1
:10023100FEC3940AEE5004243080022437FF1202D8
:04024100E81A80D166
:010245002296
:040246008A248B2556
:10024A00120326AA26EAD394004028EA24FFFDE4F2
:10025A0034FFFC7F027E0012028AAC24AD25CFCD8A
:10026A00CFCECCCE12004DEF54012430FF1202E85B
:03027A001A80D215
:01027D00225E
:030000000200A259
:0C00A200787FE4F6D8FD7581260200E9A5
:10000E00BB010CE58229F582E5833AF583E02250A7
:10001E0006E92582F8E622BBFE06E92582F8E222F1
:0D002E00E58229F582E5833AF583E493220B
:10003B00EF8DF0A4A8F0CF8CF0A428CE8DF0A42ED9
:02004B00FE2293
:10004D00BC000BBE0029EF8DF084FFADF022E4CC97
:10005D00F875F008EF2FFFEE33FEEC33FCEE9DEC60
:10006D00984005FCEE9DFE0FD5F0E9E4CEFD22EDA6
:10007D00F8F5F0EE8420D21CFEADF075F008EF2FF0
:10008D00FFED33FD4007985006D5F0F222C398FDE1
:05009D000FD5F0EA227E
:1000AE0002012EE493A3F8E493A34003F68001F239
:1000BE0008DFF48029E493A3F85407240CC8C33353
:1000CE00C4540F4420C8834004F456800146F6DF22
:1000DE00E4800B0102040810204080900374E47E3B
:1000EE00019360BCA3FF543F30E509541FFEE49317
:1000FE00A360010ECF54C025E060A840B8E493A3DE
:10010E00FAE493A3F8E493A3C8C582C8CAC583CA08
:10011E00F0A3C8C582C8CAC583CADFE9DEE780BEC0
:01037D00007F
:00000001FF
