:0B04900048656C6C6F576F726C640065
:0304AF0001220027
:1003BC0012046D7BFF7A0479907D017F011203E4B6
:1003CC001200038F23E52360F7FB7A00750C027D86
:0803DC00017F0212042580E8F4
:10045800EF1FAC0670011E4C600A7D027CEFDCFECB
:04046800DDFC80EC4B
:01046C00226D
:06048100C2A58F80D2A786
:080487007F027EEFDEFEDFFCC8
:01048F00224A
:0A049B00C2A6120481C2A702048762
:10040700CFCDCFCECCCE1201FD7C007D0A1201FDEF
:04041700ED2430FFA1
:0A041B00D2A6120481C2A7020487D2
:10044200AE07BE0104ED148006BE0209ED243F444E
:0604520080FF12049B2252
:10046D007F3812049B7F0C12049B7F0612049B7F26
:04047D000102049BD9
:0A04A500AC03120442AF0402041B72
:0603E4008B088A09890A5A
:1003EA00120442E4FDAB08AA09A90A8D82758300AA
:0C03FA001201BEFF600612041B0D80E91A
:0104060022D3
:0C0389007F0AEA24FFFDE434FFFC7E0044
:080395008E0D8F0E8C0F8D10F0
:10039D007F017E00E4FBEBC39510E50F6480F874DC
:0E03AD008098500AAC0DAD0E1201EB0B80E8EB
:0103BB00221F
:040425008A0A8B0BA9
:10042900120442AA0CEAD39400400D120389AC0AC3
:08043900AD0B1204071A80ED5F
:010441002298
:1002DE00120442C3EA64809480400B7F2B12041BED
:1002EE008A168B17800E7F2D12041BC3E49BF51705
:1002FE00E49AF516AA15EAD39400400D120389ACC0
:09030E0016AD171204071A80ED68
:0103170022C3
:040318008A1A8B1B97
:10031C00120442AA1CEAD3940040297F1012038BCA
:10032C00AC1AAD1BCFCDCFCECCCE1201FDEF540FFE
:10033C00FEC3940AEE5004243080022437FF1204CA
:04034C001B1A80D127
:01035000228A
:040351008A1F8B2054
:10035500120442AA21EAD394004028EA24FFFDE4CE
:1003650034FFFC7F027E00120395AC1FAD20CFCD7C
:10037500CFCECCCE1201FDEF54012430FF12041B69
:030385001A80D209
:010388002252
:10000300E4F508F5097590FFC2932097167F14FE57
:100013001204583097FD7F147E00120458750800AF
:100023007509012096177F147E001204583096FD3F
:100033007F147E0012045875080075090520951772
:100043007F147E001204583095FD7F147E00120445
:10005300587508007509092094177F147E0012044F
:10006300583094FD7F147E001204587508007509FA
:100073000D7590FFC2922097177F147E00120458CB
:100083003097FD7F147E001204587508007509022D
:100093002096177F147E001204583096FD7F147E3D
:1000A300001204587508007509062095177F147E01
:1000B300001204583095FD7F147E00120458750811
:1000C3000075090A2094177F147E00120458309497
:1000D300FD7F147E0012045875080075090E759093
:1000E300FFC2912097177F147E001204583097FDAA
:1000F3007F147E00120458750800750903209617B3
:100103007F147E001204583096FD7F147E00120483
:10011300587508007509072095177F147E0012048F
:10012300583095FD7F147E00120458750800750938
:100133000B2094177F147E001204583094FD7F1413
:100143007E0012045875080075090F7590FFC29060
:100153002097177F147E001204583097FD7F147E7A
:10016300001204587508007509042096177F147E41
:10017300001204583096FD7F147E0012045875084F
:10018300007509082095177F147E001204583095D6
:10019300FD7F147E0012045875080075090C209425
:1001A300177F147E001204583094FD7F147E0012D2
:0A01B3000458750800750910AF0923
:0101BD00221F
:03000000020252A7
:0C025200787FE4F6D8FD75812302029944
:1001BE00BB010CE58229F582E5833AF583E02250F6
:1001CE0006E92582F8E622BBFE06E92582F8E22240
:0D01DE00E58229F582E5833AF583E493225A
:1001EB00EF8DF0A4A8F0CF8CF0A428CE8DF0A42E28
:0201FB00FE22E2
:1001FD00BC000BBE0029EF8DF084FFADF022E4CCE6
:10020D00F875F008EF2FFFEE33FEEC33FCEE9DECAE
:10021D00984005FCEE9DFE0FD5F0E9E4CEFD22EDF4
:10022D00F8F5F0EE8420D21CFEADF075F008EF2F3E
:10023D00FFED33FD4007985006D5F0F222C398FD2F
:05024D000FD5F0EA22CC
:10025E000203BCE493A3F8E493A34003F68001F2F7
:10026E0008DFF48029E493A3F85407240CC8C333A1
:10027E00C4540F4420C8834004F456800146F6DF70
:10028E00E4800B01020408102040809004AFE47E4D
:10029E00019360BCA3FF543F30E509541FFEE49365
:1002AE00A360010ECF54C025E060A840B8E493A32C
:1002BE00FAE493A3F8E493A3C8C582C8CAC583CA57
:1002CE00F0A3C8C582C8CAC583CADFE9DEE780BE0F
:0104B2000049
:00000001FF
