:0605AE003A0044617900EF
:1001950012056D1205B41200037BFF7A0579AE7D59
:1001A500037F021204E47BFF7A0579AE7D067F02A8
:1001B5001204E41200DAE518FB7A00750C027D01E1
:1001C5007F01120525E519FB7A00750C027D047F78
:1001D50001120525E51AFB7A00750C027D077F01E2
:1001E500120525E51BFB7A00750C027D017F0212C5
:1001F5000525E51CFB7A00750C027D047F021205BE
:1002050025E51DFB7A00750C027D077F0212052589
:100215007BFF7A0579B07D0A7F021204E4E51EFBB7
:100225007A00750C017D0D7F021205257FF47E0194
:060235001205580201B899
:10055800EF1FAC0670011E4C600A7D027CEFDCFECA
:04056800DDFC80EC4A
:01056C00226C
:06058100C2A58F80D2A785
:080587007F027EEFDEFEDFFCC7
:01058F002249
:0A059000C2A6120581C2A70205876A
:10050700CFCDCFCECCCE12027A7C007D0A12027AF2
:04051700ED2430FFA0
:0A051B00D2A6120581C2A7020587CF
:10054200AE07BE0104ED148006BE0209ED243F444D
:0605520080FF120590225B
:10056D007F381205907F0C1205907F061205907F43
:04057D0001020590E2
:0A059A00AC03120542AF0402051B7A
:0604E4008B088A09890A59
:1004EA00120542E4FDAB08AA09A90A8D82758300A8
:0C04FA0012023BFF600612051B0D80E99A
:0105060022D2
:0C04B1007F0AEA24FFFDE434FFFC7E001B
:0804BD008E0D8F0E8C0F8D10C7
:1004C5007F017E00E4FBEBC39510E50F6480F874B3
:0E04D5008098500AAC0DAD0E1202680B80E844
:0104E30022F6
:040525008A0A8B0BA8
:10052900120542AA0CEAD39400400D1204B1AC0A98
:08053900AD0B1205071A80ED5D
:010541002297
:10040600120542C3EA64809480400B7F2B12051BC1
:100416008A168B17800E7F2D12051BC3E49BF517DA
:10042600E49AF516AA15EAD39400400D1204B1AC6D
:0904360016AD171205071A80ED3E
:01043F00229A
:040440008A218B2260
:10044400120542AA23EAD3940040297F101204B370
:10045400AC21AD22CFCDCFCECCCE12027AEF540F49
:10046400FEC3940AEE5004243080022437FF1205A0
:040474001B1A80D1FE
:010478002261
:040479008A268B271D
:10047D00120542AA28EAD394004028EA24FFFDE49D
:10048D0034FFFC7F027E001204BDAC26AD27CFCD1C
:10049D00CFCECCCE12027AEF54012430FF12051BC1
:0304AD001A80D2E0
:0104B0002229
:0905A4000718170916173B37056B
:0505B400C2B5C2B62231
:06035B0025F0FDEC3EFC64
:060361008C088D09AB07BA
:10036700D2B5E4FD74017E00A805088005C333CE2D
:1003770033CED8F9FFEBF582EF558224FF92B4D242
:10038700B6C2B60DBD08DDE4FD74017E00A8050800
:100397008005C333CE33CED8F9FFE5085EFEE50905
:1003A7005F4E24FF92B4D2B6C2B60DBD08DBC2B50C
:0103B7002223
:0203B800AD078F
:1003BA00E4F9430501D2B5FB74017E00A803088065
:1003CA0005C333CE33CED8F9FFEDF582EF5582243B
:1003DA00FF92B4C2B6D2B60BBB08DDE4FBD2B6C2FA
:1003EA00B630B40D7401A803088002C333D8FC42A6
:0B03FA00010BBB08E8C2B5C2B4AF01A4
:0104050022D4
:10000300E4FDFC7F8E120361E51875F00A8475F038
:1000130010A4FFAEF0E51875F00A84EF7F8C12038D
:100023005BE51975F00A8475F010A4FFAEF0E519CD
:1000330075F00A847C00EF7F8812035BE51A75F084
:100043000A8475F010A4FFAEF0E51A75F00A847CFB
:1000530000EF25F0FDEC3EFC7F86120361E51B7586
:10006300F00A8475F010A4FFAEF0E51B75F00A8466
:100073007C00EF25F0FDEC3EFC7F84120361E51C60
:1000830075F00A8475F010A4FFAEF0E51C75F00A54
:10009300847C00EF25F0FDEC3EFC7F82120361E5DA
:1000A3001D75F00A8475F010A4FFAEF0E51D75F020
:1000B3000A847C00EF25F0FDEC3EFC7F8012036197
:1000C300E51E75F00A84E5F0FD7C007F8A1203616A
:0700D3007D807F8E020361B6
:1000DA007F8C1203B8AD077C00ECC4F854F0C8ED6D
:1000EA00C4540F4875F00AA4FFED540F2FF5187F7A
:1000FA00881203B8AD07ECC4F854F0C8EDC4540F25
:10010A004875F00AA4FFED540F2FF5197F861203E4
:10011A00B8AD07ECC4F854F0C8EDC4540F4875F0F4
:10012A000AA4FFED540F2FF51A7F841203B8AD0706
:10013A00ECC4F854F0C8EDC4540F4875F00AA4FF93
:10014A00ED540F2FF51B7F821203B8AD07ECC4F8EC
:10015A0054F0C8EDC4540F4875F00AA4FFED540FCB
:10016A002FF51C7F801203B8AD07ECC4F854F0C811
:10017A00EDC4540F4875F00AA4FFED540F2FF51D76
:0A018A007F8A1203B8EF540FF51E30
:010194002248
:030000000202CF2A
:0C02CF00787FE4F6D8FD75812B02031641
:10023B00BB010CE58229F582E5833AF583E0225078
:10024B0006E92582F8E622BBFE06E92582F8E222C2
:0D025B00E58229F582E5833AF583E49322DC
:10026800EF8DF0A4A8F0CF8CF0A428CE8DF0A42EAA
:02027800FE2264
:10027A00BC000BBE0029EF8DF084FFADF022E4CC68
:10028A00F875F008EF2FFFEE33FEEC33FCEE9DEC31
:10029A00984005FCEE9DFE0FD5F0E9E4CEFD22ED77
:1002AA00F8F5F0EE8420D21CFEADF075F008EF2FC1
:1002BA00FFED33FD4007985006D5F0F222C398FDB2
:0502CA000FD5F0EA224F
:1002DB00020195E493A3F8E493A34003F68001F2A3
:1002EB0008DFF48029E493A3F85407240CC8C33324
:1002FB00C4540F4420C8834004F456800146F6DFF3
:10030B00E4800B01020408102040809005A4E47ED9
:10031B00019360BCA3FF543F30E509541FFEE493E7
:10032B00A360010ECF54C025E060A840B8E493A3AE
:10033B00FAE493A3F8E493A3C8C582C8CAC583CAD9
:10034B00F0A3C8C582C8CAC583CADFE9DEE780BE91
:0105AD00004D
:00000001FF
